:020000020000FC
:020000004AC0F4
:1000680052433520546573740000506C61696E7496
:100078006578743A0000456E637279707465643A05
:1000880000004465637279707465643A000008E0A2
:100098000EBF0FEF0DBF11241CD030D18DD1E8E673
:1000A800F0E082D1F2D188D1E2E7F0E07DD18BD1C6
:1000B800ECD123D085D080D1EEE7F0E075D194D192
:1000C800E4D1CCD079D1EAE8F0E06ED17CD1E4D1AA
:1000D800FFCFA0E0B1E051E05D9353955D30E1F7CB
:1000E800ACE3B1E004E30D930CE10C93AEE3B1E0B3
:1000F80003EC0D9302EA0C930895A0E0B1E0CCE084
:10010800D1E056E00D9109930D9109935A95D1F7D5
:10011800E8E1F1E001EE019307EB019351E161E0C1
:1001280032971191219107E3100F0EE9201F1193C7
:1001380021935A95A9F7662777271127222733276E
:10014800442786E3E8E1F1E0062F000FE00FF11DF8
:100158000191302F0191402F310F421F53E0330F8F
:10016800441F08F431605A95D1F73297319341937F
:10017800132F242FECE0F1E0072F000FE00FF11D03
:100188000191302F0191402F310F421F932F9F7003
:10019800992331F0330F441F08F431609A95D1F751
:1001A800329731934193332F442F6395623109F489
:1001B80066277395763009F477278A9519F6089596
:1001C80010913C0120913D0130913E0140913F0149
:1001D800E8E1F1E00191100F0191201F0191300F2A
:1001E8000191401F8CE061E0912F9327022F042793
:1001F800532F5F70552331F0990F001F08F4916059
:100208005A95D1F7E8E1F1E0562F550FE50FF11DAA
:100218005191950F5191051F192F202F932F912739
:10022800042F0227512F5F70552331F0990F001FBB
:1002380008F491605A95D1F75191950F5191051F86
:10024800392F402F63958A9579F6109340012093B2
:1002580041013093420140934301089510914001B8
:100268002091410130914201409143018CE06CE0C2
:10027800E8E1F1E0062F000F52E0050FE00FF11D55
:100288000191301B0191400B912F9F70992339F0F8
:1002980030FB469537950EF440689A95C9F7312793
:1002A8004227E8E1F1E0062F000FE00FF11D019170
:1002B800101B0191200B932F9F70992339F010FB8D
:1002C800269517950EF420689A95C9F713272427C1
:1002D8006A958A9569F6E8E1F1E00191101B0191B0
:1002E800200B0191301B0191400B10933C0120938E
:1002F8003D0130933E0140933F010895579A569A25
:10030800559A549A539A529A5F985E98B7D0B6D035
:1003180003E016D0A7D003E013D0A4D003E010D098
:10032800A1D002E00DD09ED008E222D09BD00FE0F1
:100338001FD098D041D096D006E01AD093D0089517
:100348000F9300FD5D9A00FF5D9801FD5C9A01FF27
:100358005C9802FD5B9A02FF5B9803FD5A9A03FFC3
:100368005A985E9A67D066D05E9875D00F910895B6
:100378000F935F98902F92959F70092FE1DF0F914F
:100388000F930F70DDDF6ED00F9108950F935F9A72
:10039800902F92959F70092FD3DF0F910F930F70B5
:1003A800CFDF59D00F9108950F930591002311F0D5
:1003B800EDDFFBCF0F91089501E0DADF53D002E0C3
:1003C800D7DF50D0089500ECD3DF00913D011DD058
:1003D80000913C011AD000E2D9DF00913F0115D00D
:1003E80000913E0112D0089500ECC2DF0091410156
:1003F8000CD00091400109D000E2C8DF0091430110
:1004080004D00091420101D008950F939F93902F3B
:1004180092959F709A3008F0995F905D092FB6DF2A
:100428009F919F709A3008F0995F905D092FAEDF19
:100438000F91089500000000000000000000000077
:1004480000000000000000000000000000000000A4
:100458000000000008950F9304E6ECDF0A95E9F721
:100468000F9108950F931F9302E314E6E3DF1A95A3
:10047800E9F70A95D1F71F910F9108950F9304E1B9
:10048800F1DF0A95E9F70F9108950F930AE0F6DF77
:100498000A95E9F70F9108951124E8E1F1E004E2E3
:1004A80011920A95E9F7ECE0F1E00CE011920A9557
:0404B800E9F70895C3
:00000001FF
